{
  "_format": "hh-sol-artifact-1",
  "contractName": "DocVerifier",
  "sourceName": "contracts/DocVerifier.sol",
  "abi": [
    {
      "inputs": [],
      "stateMutability": "nonpayable",
      "type": "constructor"
    },
    {
      "anonymous": false,
      "inputs": [
        {
          "indexed": true,
          "internalType": "bytes32",
          "name": "documentHash",
          "type": "bytes32"
        }
      ],
      "name": "DocumentRemoved",
      "type": "event"
    },
    {
      "anonymous": false,
      "inputs": [
        {
          "indexed": true,
          "internalType": "bytes32",
          "name": "documentHash",
          "type": "bytes32"
        },
        {
          "indexed": false,
          "internalType": "bool",
          "name": "isValid",
          "type": "bool"
        }
      ],
      "name": "DocumentVerified",
      "type": "event"
    },
    {
      "inputs": [
        {
          "internalType": "bytes32",
          "name": "documentHash",
          "type": "bytes32"
        }
      ],
      "name": "isDocumentVerified",
      "outputs": [
        {
          "internalType": "bool",
          "name": "",
          "type": "bool"
        }
      ],
      "stateMutability": "view",
      "type": "function"
    },
    {
      "inputs": [],
      "name": "owner",
      "outputs": [
        {
          "internalType": "address",
          "name": "",
          "type": "address"
        }
      ],
      "stateMutability": "view",
      "type": "function"
    },
    {
      "inputs": [
        {
          "internalType": "bytes32",
          "name": "documentHash",
          "type": "bytes32"
        }
      ],
      "name": "removeDocument",
      "outputs": [],
      "stateMutability": "nonpayable",
      "type": "function"
    },
    {
      "inputs": [
        {
          "internalType": "bytes32",
          "name": "",
          "type": "bytes32"
        }
      ],
      "name": "verifiedDocuments",
      "outputs": [
        {
          "internalType": "bool",
          "name": "",
          "type": "bool"
        }
      ],
      "stateMutability": "view",
      "type": "function"
    },
    {
      "inputs": [
        {
          "internalType": "bytes32",
          "name": "documentHash",
          "type": "bytes32"
        },
        {
          "internalType": "bool",
          "name": "isValid",
          "type": "bool"
        }
      ],
      "name": "verifyDocument",
      "outputs": [],
      "stateMutability": "nonpayable",
      "type": "function"
    }
  ],
  "bytecode": "0x6080604052348015600f57600080fd5b50336000806101000a81548173ffffffffffffffffffffffffffffffffffffffff021916908373ffffffffffffffffffffffffffffffffffffffff1602179055506104e18061005f6000396000f3fe608060405234801561001057600080fd5b50600436106100575760003560e01c80638da5cb5b1461005c5780639268cbd61461007a578063c350184814610096578063cbe88026146100b2578063e5dcfd80146100e2575b600080fd5b610064610112565b6040516100719190610309565b60405180910390f35b610094600480360381019061008f9190610397565b610136565b005b6100b060048036038101906100ab91906103d7565b61019d565b005b6100cc60048036038101906100c791906103d7565b61027e565b6040516100d99190610413565b60405180910390f35b6100fc60048036038101906100f791906103d7565b61029e565b6040516101099190610413565b60405180910390f35b60008054906101000a900473ffffffffffffffffffffffffffffffffffffffff1681565b806001600084815260200190815260200160002060006101000a81548160ff021916908315150217905550817f60c74738e7245c18eb22f19c5721213f5a434f429689bba57898e5860189e92d826040516101919190610413565b60405180910390a25050565b60008054906101000a900473ffffffffffffffffffffffffffffffffffffffff1673ffffffffffffffffffffffffffffffffffffffff163373ffffffffffffffffffffffffffffffffffffffff161461022b576040517f08c379a00000000000000000000000000000000000000000000000000000000081526004016102229061048b565b60405180910390fd5b6001600082815260200190815260200160002060006101000a81549060ff0219169055807fa0fe1f2bdcd0568d0f7f652dc2c303106b1fb09dbdbc81b5fd90090712120a5b60405160405180910390a250565b60016020528060005260406000206000915054906101000a900460ff1681565b60006001600083815260200190815260200160002060009054906101000a900460ff169050919050565b600073ffffffffffffffffffffffffffffffffffffffff82169050919050565b60006102f3826102c8565b9050919050565b610303816102e8565b82525050565b600060208201905061031e60008301846102fa565b92915050565b600080fd5b6000819050919050565b61033c81610329565b811461034757600080fd5b50565b60008135905061035981610333565b92915050565b60008115159050919050565b6103748161035f565b811461037f57600080fd5b50565b6000813590506103918161036b565b92915050565b600080604083850312156103ae576103ad610324565b5b60006103bc8582860161034a565b92505060206103cd85828601610382565b9150509250929050565b6000602082840312156103ed576103ec610324565b5b60006103fb8482850161034a565b91505092915050565b61040d8161035f565b82525050565b60006020820190506104286000830184610404565b92915050565b600082825260208201905092915050565b7f4e6f7420636f6e7472616374206f776e65720000000000000000000000000000600082015250565b600061047560128361042e565b91506104808261043f565b602082019050919050565b600060208201905081810360008301526104a481610468565b905091905056fea2646970667358221220d0a6e283759b51717ee90e0e9c041c8c7a7f1fed01874c92f577d3a76015cd7b64736f6c634300081c0033",
  "linkReferences": {},
  "deployedLinkReferences": {}
}